{
  "contractName": "SupplyChain",
  "abi": [
    {
      "inputs": [
        {
          "internalType": "string",
          "name": "_Manufacturer_Address",
          "type": "string"
        }
      ],
      "name": "enterAddress",
      "outputs": [],
      "stateMutability": "nonpayable",
      "type": "function"
    },
    {
      "inputs": [],
      "name": "getManufacturerAddress",
      "outputs": [
        {
          "internalType": "string",
          "name": "",
          "type": "string"
        }
      ],
      "stateMutability": "view",
      "type": "function",
      "constant": true
    },
    {
      "inputs": [
        {
          "internalType": "string",
          "name": "_ProductName",
          "type": "string"
        },
        {
          "internalType": "string",
          "name": "_ProductType",
          "type": "string"
        },
        {
          "internalType": "uint256",
          "name": "_ProductPrice",
          "type": "uint256"
        }
      ],
      "name": "createProduct",
      "outputs": [],
      "stateMutability": "nonpayable",
      "type": "function"
    },
    {
      "inputs": [
        {
          "internalType": "address",
          "name": "addr",
          "type": "address"
        }
      ],
      "name": "ChangeState",
      "outputs": [],
      "stateMutability": "nonpayable",
      "type": "function"
    },
    {
      "inputs": [],
      "name": "getAllProductAddr",
      "outputs": [
        {
          "internalType": "address[]",
          "name": "",
          "type": "address[]"
        }
      ],
      "stateMutability": "view",
      "type": "function",
      "constant": true
    },
    {
      "inputs": [],
      "name": "getAllProduct",
      "outputs": [
        {
          "components": [
            {
              "internalType": "uint256",
              "name": "Serial",
              "type": "uint256"
            },
            {
              "internalType": "address",
              "name": "Manufacturer",
              "type": "address"
            },
            {
              "internalType": "address",
              "name": "ProductID",
              "type": "address"
            },
            {
              "internalType": "string",
              "name": "ProductName",
              "type": "string"
            },
            {
              "internalType": "string",
              "name": "ProductType",
              "type": "string"
            },
            {
              "internalType": "uint256",
              "name": "ProductPrice",
              "type": "uint256"
            },
            {
              "internalType": "uint256",
              "name": "TimeStamp",
              "type": "uint256"
            },
            {
              "internalType": "string",
              "name": "State",
              "type": "string"
            }
          ],
          "internalType": "struct SupplyChain.ProductDetail[]",
          "name": "",
          "type": "tuple[]"
        }
      ],
      "stateMutability": "view",
      "type": "function",
      "constant": true
    },
    {
      "inputs": [
        {
          "internalType": "address",
          "name": "id",
          "type": "address"
        }
      ],
      "name": "getProductState",
      "outputs": [
        {
          "internalType": "uint256",
          "name": "",
          "type": "uint256"
        },
        {
          "internalType": "uint256",
          "name": "",
          "type": "uint256"
        },
        {
          "internalType": "uint256",
          "name": "",
          "type": "uint256"
        },
        {
          "internalType": "uint256",
          "name": "",
          "type": "uint256"
        },
        {
          "internalType": "uint256",
          "name": "",
          "type": "uint256"
        }
      ],
      "stateMutability": "view",
      "type": "function",
      "constant": true
    },
    {
      "inputs": [
        {
          "internalType": "address",
          "name": "id",
          "type": "address"
        }
      ],
      "name": "getProduct",
      "outputs": [
        {
          "internalType": "uint256",
          "name": "",
          "type": "uint256"
        },
        {
          "internalType": "address",
          "name": "",
          "type": "address"
        },
        {
          "internalType": "address",
          "name": "",
          "type": "address"
        },
        {
          "internalType": "string",
          "name": "",
          "type": "string"
        },
        {
          "internalType": "string",
          "name": "",
          "type": "string"
        },
        {
          "internalType": "uint256",
          "name": "",
          "type": "uint256"
        },
        {
          "internalType": "uint256",
          "name": "",
          "type": "uint256"
        },
        {
          "internalType": "string",
          "name": "",
          "type": "string"
        }
      ],
      "stateMutability": "view",
      "type": "function",
      "constant": true
    },
    {
      "inputs": [
        {
          "internalType": "address",
          "name": "id",
          "type": "address"
        }
      ],
      "name": "Delete",
      "outputs": [],
      "stateMutability": "nonpayable",
      "type": "function"
    },
    {
      "inputs": [],
      "name": "N_Product",
      "outputs": [
        {
          "components": [
            {
              "internalType": "uint256",
              "name": "Serial",
              "type": "uint256"
            },
            {
              "internalType": "address",
              "name": "Manufacturer",
              "type": "address"
            },
            {
              "internalType": "address",
              "name": "ProductID",
              "type": "address"
            },
            {
              "internalType": "string",
              "name": "ProductName",
              "type": "string"
            },
            {
              "internalType": "string",
              "name": "ProductType",
              "type": "string"
            },
            {
              "internalType": "uint256",
              "name": "ProductPrice",
              "type": "uint256"
            },
            {
              "internalType": "uint256",
              "name": "TimeStamp",
              "type": "uint256"
            },
            {
              "internalType": "string",
              "name": "State",
              "type": "string"
            }
          ],
          "internalType": "struct SupplyChain.ProductDetail[]",
          "name": "",
          "type": "tuple[]"
        }
      ],
      "stateMutability": "view",
      "type": "function",
      "constant": true
    }
  ],
  "bytecode": "0x608060405234801561001057600080fd5b50615343806100206000396000f3fe608060405234801561001057600080fd5b506004361061009e5760003560e01c8063bd03adf011610066578063bd03adf01461014b578063c305f34014610169578063d03a4dcd14610185578063d055a75f146101a1578063d9aba9ce146101bf5761009e565b806308071e6d146100a35780634f77df2a146100d75780638319f760146100f35780638462ca1214610111578063a14222091461012f575b600080fd5b6100bd60048036038101906100b891906145a1565b6101f6565b6040516100ce9594939291906145e7565b60405180910390f35b6100f160048036038101906100ec91906145a1565b6103c3565b005b6100fb61293d565b60405161010891906146f8565b60405180910390f35b6101196129cb565b6040516101269190614939565b60405180910390f35b61014960048036038101906101449190614abc565b612cab565b005b6101536139ad565b6040516101609190614b91565b60405180910390f35b610183600480360381019061017e9190614bb3565b613a3f565b005b61019f600480360381019061019a91906145a1565b613a52565b005b6101a9613d64565b6040516101b69190614939565b60405180910390f35b6101d960048036038101906101d491906145a1565b614044565b6040516101ed989796959493929190614c0b565b60405180910390f35b60008060008060008060008773ffffffffffffffffffffffffffffffffffffffff1673ffffffffffffffffffffffffffffffffffffffff1681526020019081526020016000206006016000808152602001908152602001600020600001546000808873ffffffffffffffffffffffffffffffffffffffff1673ffffffffffffffffffffffffffffffffffffffff168152602001908152602001600020600601600060018152602001908152602001600020600001546000808973ffffffffffffffffffffffffffffffffffffffff1673ffffffffffffffffffffffffffffffffffffffff168152602001908152602001600020600601600060028152602001908152602001600020600001546000808a73ffffffffffffffffffffffffffffffffffffffff1673ffffffffffffffffffffffffffffffffffffffff168152602001908152602001600020600601600060038152602001908152602001600020600001546000808b73ffffffffffffffffffffffffffffffffffffffff1673ffffffffffffffffffffffffffffffffffffffff168152602001908152602001600020600601600060048152602001908152602001600020600001549450945094509450945091939590929450565b6000808273ffffffffffffffffffffffffffffffffffffffff1673ffffffffffffffffffffffffffffffffffffffff168152602001908152602001600020600001600081548092919061041590614ccd565b919050555060016000808373ffffffffffffffffffffffffffffffffffffffff1673ffffffffffffffffffffffffffffffffffffffff1681526020019081526020016000206000015403610d6257600060405180604001604052804281526020016040518060400160405280600781526020017f50524f43455353000000000000000000000000000000000000000000000000008152508152509050806000808473ffffffffffffffffffffffffffffffffffffffff1673ffffffffffffffffffffffffffffffffffffffff16815260200190815260200160002060060160008060008673ffffffffffffffffffffffffffffffffffffffff1673ffffffffffffffffffffffffffffffffffffffff1681526020019081526020016000206000015481526020019081526020016000206000820151816000015560208201518160010190816105649190614f21565b50905050426000808473ffffffffffffffffffffffffffffffffffffffff1673ffffffffffffffffffffffffffffffffffffffff168152602001908152602001600020600601600060018152602001908152602001600020600001819055506105cc82613a52565b60016040518061010001604052806000808673ffffffffffffffffffffffffffffffffffffffff1673ffffffffffffffffffffffffffffffffffffffff1681526020019081526020016000206000015481526020013373ffffffffffffffffffffffffffffffffffffffff1681526020018473ffffffffffffffffffffffffffffffffffffffff1681526020016000808673ffffffffffffffffffffffffffffffffffffffff1673ffffffffffffffffffffffffffffffffffffffff16815260200190815260200160002060030180546106a590614d44565b80601f01602080910402602001604051908101604052809291908181526020018280546106d190614d44565b801561071e5780601f106106f35761010080835404028352916020019161071e565b820191906000526020600020905b81548152906001019060200180831161070157829003601f168201915b505050505081526020016000808673ffffffffffffffffffffffffffffffffffffffff1673ffffffffffffffffffffffffffffffffffffffff168152602001908152602001600020600401805461077490614d44565b80601f01602080910402602001604051908101604052809291908181526020018280546107a090614d44565b80156107ed5780601f106107c2576101008083540402835291602001916107ed565b820191906000526020600020905b8154815290600101906020018083116107d057829003601f168201915b505050505081526020016000808673ffffffffffffffffffffffffffffffffffffffff1673ffffffffffffffffffffffffffffffffffffffff1681526020019081526020016000206005015481526020014281526020016040518060400160405280600781526020017f50524f434553530000000000000000000000000000000000000000000000000081525081525090806001815401808255809150506001900390600052602060002090600802016000909190919091506000820151816000015560208201518160010160006101000a81548173ffffffffffffffffffffffffffffffffffffffff021916908373ffffffffffffffffffffffffffffffffffffffff16021790555060408201518160020160006101000a81548173ffffffffffffffffffffffffffffffffffffffff021916908373ffffffffffffffffffffffffffffffffffffffff16021790555060608201518160030190816109539190614f21565b5060808201518160040190816109699190614f21565b5060a0820151816005015560c0820151816006015560e08201518160070190816109939190614f21565b50505060046040518061010001604052806000808673ffffffffffffffffffffffffffffffffffffffff1673ffffffffffffffffffffffffffffffffffffffff1681526020019081526020016000206000015481526020013373ffffffffffffffffffffffffffffffffffffffff1681526020018473ffffffffffffffffffffffffffffffffffffffff1681526020016000808673ffffffffffffffffffffffffffffffffffffffff1673ffffffffffffffffffffffffffffffffffffffff1681526020019081526020016000206003018054610a6f90614d44565b80601f0160208091040260200160405190810160405280929190818152602001828054610a9b90614d44565b8015610ae85780601f10610abd57610100808354040283529160200191610ae8565b820191906000526020600020905b815481529060010190602001808311610acb57829003601f168201915b505050505081526020016000808673ffffffffffffffffffffffffffffffffffffffff1673ffffffffffffffffffffffffffffffffffffffff1681526020019081526020016000206004018054610b3e90614d44565b80601f0160208091040260200160405190810160405280929190818152602001828054610b6a90614d44565b8015610bb75780601f10610b8c57610100808354040283529160200191610bb7565b820191906000526020600020905b815481529060010190602001808311610b9a57829003601f168201915b505050505081526020016000808673ffffffffffffffffffffffffffffffffffffffff1673ffffffffffffffffffffffffffffffffffffffff1681526020019081526020016000206005015481526020014281526020016040518060400160405280600781526020017f50524f434553530000000000000000000000000000000000000000000000000081525081525090806001815401808255809150506001900390600052602060002090600802016000909190919091506000820151816000015560208201518160010160006101000a81548173ffffffffffffffffffffffffffffffffffffffff021916908373ffffffffffffffffffffffffffffffffffffffff16021790555060408201518160020160006101000a81548173ffffffffffffffffffffffffffffffffffffffff021916908373ffffffffffffffffffffffffffffffffffffffff1602179055506060820151816003019081610d1d9190614f21565b506080820151816004019081610d339190614f21565b5060a0820151816005015560c0820151816006015560e0820151816007019081610d5d9190614f21565b505050505b60026000808373ffffffffffffffffffffffffffffffffffffffff1673ffffffffffffffffffffffffffffffffffffffff16815260200190815260200160002060000154036116aa57600060405180604001604052804281526020016040518060400160405280600681526020017f46494e49534800000000000000000000000000000000000000000000000000008152508152509050806000808473ffffffffffffffffffffffffffffffffffffffff1673ffffffffffffffffffffffffffffffffffffffff16815260200190815260200160002060060160008060008673ffffffffffffffffffffffffffffffffffffffff1673ffffffffffffffffffffffffffffffffffffffff168152602001908152602001600020600001548152602001908152602001600020600082015181600001556020820151816001019081610eac9190614f21565b50905050426000808473ffffffffffffffffffffffffffffffffffffffff1673ffffffffffffffffffffffffffffffffffffffff16815260200190815260200160002060060160006002815260200190815260200160002060000181905550610f1482613a52565b60016040518061010001604052806000808673ffffffffffffffffffffffffffffffffffffffff1673ffffffffffffffffffffffffffffffffffffffff1681526020019081526020016000206000015481526020013373ffffffffffffffffffffffffffffffffffffffff1681526020018473ffffffffffffffffffffffffffffffffffffffff1681526020016000808673ffffffffffffffffffffffffffffffffffffffff1673ffffffffffffffffffffffffffffffffffffffff1681526020019081526020016000206003018054610fed90614d44565b80601f016020809104026020016040519081016040528092919081815260200182805461101990614d44565b80156110665780601f1061103b57610100808354040283529160200191611066565b820191906000526020600020905b81548152906001019060200180831161104957829003601f168201915b505050505081526020016000808673ffffffffffffffffffffffffffffffffffffffff1673ffffffffffffffffffffffffffffffffffffffff16815260200190815260200160002060040180546110bc90614d44565b80601f01602080910402602001604051908101604052809291908181526020018280546110e890614d44565b80156111355780601f1061110a57610100808354040283529160200191611135565b820191906000526020600020905b81548152906001019060200180831161111857829003601f168201915b505050505081526020016000808673ffffffffffffffffffffffffffffffffffffffff1673ffffffffffffffffffffffffffffffffffffffff1681526020019081526020016000206005015481526020014281526020016040518060400160405280600681526020017f46494e495348000000000000000000000000000000000000000000000000000081525081525090806001815401808255809150506001900390600052602060002090600802016000909190919091506000820151816000015560208201518160010160006101000a81548173ffffffffffffffffffffffffffffffffffffffff021916908373ffffffffffffffffffffffffffffffffffffffff16021790555060408201518160020160006101000a81548173ffffffffffffffffffffffffffffffffffffffff021916908373ffffffffffffffffffffffffffffffffffffffff160217905550606082015181600301908161129b9190614f21565b5060808201518160040190816112b19190614f21565b5060a0820151816005015560c0820151816006015560e08201518160070190816112db9190614f21565b50505060046040518061010001604052806000808673ffffffffffffffffffffffffffffffffffffffff1673ffffffffffffffffffffffffffffffffffffffff1681526020019081526020016000206000015481526020013373ffffffffffffffffffffffffffffffffffffffff1681526020018473ffffffffffffffffffffffffffffffffffffffff1681526020016000808673ffffffffffffffffffffffffffffffffffffffff1673ffffffffffffffffffffffffffffffffffffffff16815260200190815260200160002060030180546113b790614d44565b80601f01602080910402602001604051908101604052809291908181526020018280546113e390614d44565b80156114305780601f1061140557610100808354040283529160200191611430565b820191906000526020600020905b81548152906001019060200180831161141357829003601f168201915b505050505081526020016000808673ffffffffffffffffffffffffffffffffffffffff1673ffffffffffffffffffffffffffffffffffffffff168152602001908152602001600020600401805461148690614d44565b80601f01602080910402602001604051908101604052809291908181526020018280546114b290614d44565b80156114ff5780601f106114d4576101008083540402835291602001916114ff565b820191906000526020600020905b8154815290600101906020018083116114e257829003601f168201915b505050505081526020016000808673ffffffffffffffffffffffffffffffffffffffff1673ffffffffffffffffffffffffffffffffffffffff1681526020019081526020016000206005015481526020014281526020016040518060400160405280600681526020017f46494e495348000000000000000000000000000000000000000000000000000081525081525090806001815401808255809150506001900390600052602060002090600802016000909190919091506000820151816000015560208201518160010160006101000a81548173ffffffffffffffffffffffffffffffffffffffff021916908373ffffffffffffffffffffffffffffffffffffffff16021790555060408201518160020160006101000a81548173ffffffffffffffffffffffffffffffffffffffff021916908373ffffffffffffffffffffffffffffffffffffffff16021790555060608201518160030190816116659190614f21565b50608082015181600401908161167b9190614f21565b5060a0820151816005015560c0820151816006015560e08201518160070190816116a59190614f21565b505050505b60036000808373ffffffffffffffffffffffffffffffffffffffff1673ffffffffffffffffffffffffffffffffffffffff1681526020019081526020016000206000015403611ff257600060405180604001604052804281526020016040518060400160405280600a81526020017f494e5f5452414e534954000000000000000000000000000000000000000000008152508152509050806000808473ffffffffffffffffffffffffffffffffffffffff1673ffffffffffffffffffffffffffffffffffffffff16815260200190815260200160002060060160008060008673ffffffffffffffffffffffffffffffffffffffff1673ffffffffffffffffffffffffffffffffffffffff1681526020019081526020016000206000015481526020019081526020016000206000820151816000015560208201518160010190816117f49190614f21565b50905050426000808473ffffffffffffffffffffffffffffffffffffffff1673ffffffffffffffffffffffffffffffffffffffff1681526020019081526020016000206006016000600381526020019081526020016000206000018190555061185c82613a52565b60016040518061010001604052806000808673ffffffffffffffffffffffffffffffffffffffff1673ffffffffffffffffffffffffffffffffffffffff1681526020019081526020016000206000015481526020013373ffffffffffffffffffffffffffffffffffffffff1681526020018473ffffffffffffffffffffffffffffffffffffffff1681526020016000808673ffffffffffffffffffffffffffffffffffffffff1673ffffffffffffffffffffffffffffffffffffffff168152602001908152602001600020600301805461193590614d44565b80601f016020809104026020016040519081016040528092919081815260200182805461196190614d44565b80156119ae5780601f10611983576101008083540402835291602001916119ae565b820191906000526020600020905b81548152906001019060200180831161199157829003601f168201915b505050505081526020016000808673ffffffffffffffffffffffffffffffffffffffff1673ffffffffffffffffffffffffffffffffffffffff1681526020019081526020016000206004018054611a0490614d44565b80601f0160208091040260200160405190810160405280929190818152602001828054611a3090614d44565b8015611a7d5780601f10611a5257610100808354040283529160200191611a7d565b820191906000526020600020905b815481529060010190602001808311611a6057829003601f168201915b505050505081526020016000808673ffffffffffffffffffffffffffffffffffffffff1673ffffffffffffffffffffffffffffffffffffffff1681526020019081526020016000206005015481526020014281526020016040518060400160405280600a81526020017f494e5f5452414e5349540000000000000000000000000000000000000000000081525081525090806001815401808255809150506001900390600052602060002090600802016000909190919091506000820151816000015560208201518160010160006101000a81548173ffffffffffffffffffffffffffffffffffffffff021916908373ffffffffffffffffffffffffffffffffffffffff16021790555060408201518160020160006101000a81548173ffffffffffffffffffffffffffffffffffffffff021916908373ffffffffffffffffffffffffffffffffffffffff1602179055506060820151816003019081611be39190614f21565b506080820151816004019081611bf99190614f21565b5060a0820151816005015560c0820151816006015560e0820151816007019081611c239190614f21565b50505060046040518061010001604052806000808673ffffffffffffffffffffffffffffffffffffffff1673ffffffffffffffffffffffffffffffffffffffff1681526020019081526020016000206000015481526020013373ffffffffffffffffffffffffffffffffffffffff1681526020018473ffffffffffffffffffffffffffffffffffffffff1681526020016000808673ffffffffffffffffffffffffffffffffffffffff1673ffffffffffffffffffffffffffffffffffffffff1681526020019081526020016000206003018054611cff90614d44565b80601f0160208091040260200160405190810160405280929190818152602001828054611d2b90614d44565b8015611d785780601f10611d4d57610100808354040283529160200191611d78565b820191906000526020600020905b815481529060010190602001808311611d5b57829003601f168201915b505050505081526020016000808673ffffffffffffffffffffffffffffffffffffffff1673ffffffffffffffffffffffffffffffffffffffff1681526020019081526020016000206004018054611dce90614d44565b80601f0160208091040260200160405190810160405280929190818152602001828054611dfa90614d44565b8015611e475780601f10611e1c57610100808354040283529160200191611e47565b820191906000526020600020905b815481529060010190602001808311611e2a57829003601f168201915b505050505081526020016000808673ffffffffffffffffffffffffffffffffffffffff1673ffffffffffffffffffffffffffffffffffffffff1681526020019081526020016000206005015481526020014281526020016040518060400160405280600a81526020017f494e5f5452414e5349540000000000000000000000000000000000000000000081525081525090806001815401808255809150506001900390600052602060002090600802016000909190919091506000820151816000015560208201518160010160006101000a81548173ffffffffffffffffffffffffffffffffffffffff021916908373ffffffffffffffffffffffffffffffffffffffff16021790555060408201518160020160006101000a81548173ffffffffffffffffffffffffffffffffffffffff021916908373ffffffffffffffffffffffffffffffffffffffff1602179055506060820151816003019081611fad9190614f21565b506080820151816004019081611fc39190614f21565b5060a0820151816005015560c0820151816006015560e0820151816007019081611fed9190614f21565b505050505b60046000808373ffffffffffffffffffffffffffffffffffffffff1673ffffffffffffffffffffffffffffffffffffffff168152602001908152602001600020600001540361293a57600060405180604001604052804281526020016040518060400160405280600781526020017f41525249564544000000000000000000000000000000000000000000000000008152508152509050806000808473ffffffffffffffffffffffffffffffffffffffff1673ffffffffffffffffffffffffffffffffffffffff16815260200190815260200160002060060160008060008673ffffffffffffffffffffffffffffffffffffffff1673ffffffffffffffffffffffffffffffffffffffff16815260200190815260200160002060000154815260200190815260200160002060008201518160000155602082015181600101908161213c9190614f21565b50905050426000808473ffffffffffffffffffffffffffffffffffffffff1673ffffffffffffffffffffffffffffffffffffffff168152602001908152602001600020600601600060048152602001908152602001600020600001819055506121a482613a52565b60016040518061010001604052806000808673ffffffffffffffffffffffffffffffffffffffff1673ffffffffffffffffffffffffffffffffffffffff1681526020019081526020016000206000015481526020013373ffffffffffffffffffffffffffffffffffffffff1681526020018473ffffffffffffffffffffffffffffffffffffffff1681526020016000808673ffffffffffffffffffffffffffffffffffffffff1673ffffffffffffffffffffffffffffffffffffffff168152602001908152602001600020600301805461227d90614d44565b80601f01602080910402602001604051908101604052809291908181526020018280546122a990614d44565b80156122f65780601f106122cb576101008083540402835291602001916122f6565b820191906000526020600020905b8154815290600101906020018083116122d957829003601f168201915b505050505081526020016000808673ffffffffffffffffffffffffffffffffffffffff1673ffffffffffffffffffffffffffffffffffffffff168152602001908152602001600020600401805461234c90614d44565b80601f016020809104026020016040519081016040528092919081815260200182805461237890614d44565b80156123c55780601f1061239a576101008083540402835291602001916123c5565b820191906000526020600020905b8154815290600101906020018083116123a857829003601f168201915b505050505081526020016000808673ffffffffffffffffffffffffffffffffffffffff1673ffffffffffffffffffffffffffffffffffffffff1681526020019081526020016000206005015481526020014281526020016040518060400160405280600781526020017f415252495645440000000000000000000000000000000000000000000000000081525081525090806001815401808255809150506001900390600052602060002090600802016000909190919091506000820151816000015560208201518160010160006101000a81548173ffffffffffffffffffffffffffffffffffffffff021916908373ffffffffffffffffffffffffffffffffffffffff16021790555060408201518160020160006101000a81548173ffffffffffffffffffffffffffffffffffffffff021916908373ffffffffffffffffffffffffffffffffffffffff160217905550606082015181600301908161252b9190614f21565b5060808201518160040190816125419190614f21565b5060a0820151816005015560c0820151816006015560e082015181600701908161256b9190614f21565b50505060046040518061010001604052806000808673ffffffffffffffffffffffffffffffffffffffff1673ffffffffffffffffffffffffffffffffffffffff1681526020019081526020016000206000015481526020013373ffffffffffffffffffffffffffffffffffffffff1681526020018473ffffffffffffffffffffffffffffffffffffffff1681526020016000808673ffffffffffffffffffffffffffffffffffffffff1673ffffffffffffffffffffffffffffffffffffffff168152602001908152602001600020600301805461264790614d44565b80601f016020809104026020016040519081016040528092919081815260200182805461267390614d44565b80156126c05780601f10612695576101008083540402835291602001916126c0565b820191906000526020600020905b8154815290600101906020018083116126a357829003601f168201915b505050505081526020016000808673ffffffffffffffffffffffffffffffffffffffff1673ffffffffffffffffffffffffffffffffffffffff168152602001908152602001600020600401805461271690614d44565b80601f016020809104026020016040519081016040528092919081815260200182805461274290614d44565b801561278f5780601f106127645761010080835404028352916020019161278f565b820191906000526020600020905b81548152906001019060200180831161277257829003601f168201915b505050505081526020016000808673ffffffffffffffffffffffffffffffffffffffff1673ffffffffffffffffffffffffffffffffffffffff1681526020019081526020016000206005015481526020014281526020016040518060400160405280600781526020017f415252495645440000000000000000000000000000000000000000000000000081525081525090806001815401808255809150506001900390600052602060002090600802016000909190919091506000820151816000015560208201518160010160006101000a81548173ffffffffffffffffffffffffffffffffffffffff021916908373ffffffffffffffffffffffffffffffffffffffff16021790555060408201518160020160006101000a81548173ffffffffffffffffffffffffffffffffffffffff021916908373ffffffffffffffffffffffffffffffffffffffff16021790555060608201518160030190816128f59190614f21565b50608082015181600401908161290b9190614f21565b5060a0820151816005015560c0820151816006015560e08201518160070190816129359190614f21565b505050505b50565b606060028054806020026020016040519081016040528092919081815260200182805480156129c157602002820191906000526020600020905b8160009054906101000a900473ffffffffffffffffffffffffffffffffffffffff1673ffffffffffffffffffffffffffffffffffffffff1681526020019060010190808311612977575b5050505050905090565b60606004805480602002602001604051908101604052809291908181526020016000905b82821015612ca2578382906000526020600020906008020160405180610100016040529081600082015481526020016001820160009054906101000a900473ffffffffffffffffffffffffffffffffffffffff1673ffffffffffffffffffffffffffffffffffffffff1673ffffffffffffffffffffffffffffffffffffffff1681526020016002820160009054906101000a900473ffffffffffffffffffffffffffffffffffffffff1673ffffffffffffffffffffffffffffffffffffffff1673ffffffffffffffffffffffffffffffffffffffff168152602001600382018054612ad990614d44565b80601f0160208091040260200160405190810160405280929190818152602001828054612b0590614d44565b8015612b525780601f10612b2757610100808354040283529160200191612b52565b820191906000526020600020905b815481529060010190602001808311612b3557829003601f168201915b50505050508152602001600482018054612b6b90614d44565b80601f0160208091040260200160405190810160405280929190818152602001828054612b9790614d44565b8015612be45780601f10612bb957610100808354040283529160200191612be4565b820191906000526020600020905b815481529060010190602001808311612bc757829003601f168201915b505050505081526020016005820154815260200160068201548152602001600782018054612c1190614d44565b80601f0160208091040260200160405190810160405280929190818152602001828054612c3d90614d44565b8015612c8a5780601f10612c5f57610100808354040283529160200191612c8a565b820191906000526020600020905b815481529060010190602001808311612c6d57829003601f168201915b505050505081525050815260200190600101906129ef565b50505050905090565b600060023342604051602001612cc292919061505c565b604051602081830303815290604052604051612cde91906150cf565b602060405180830381855afa158015612cfb573d6000803e3d6000fd5b5050506040513d601f19601f82011682018060405250810190612d1e919061511c565b60601c905060008060008373ffffffffffffffffffffffffffffffffffffffff1673ffffffffffffffffffffffffffffffffffffffff16815260200190815260200160002060000181905550336000808373ffffffffffffffffffffffffffffffffffffffff1673ffffffffffffffffffffffffffffffffffffffff16815260200190815260200160002060010160006101000a81548173ffffffffffffffffffffffffffffffffffffffff021916908373ffffffffffffffffffffffffffffffffffffffff160217905550806000808373ffffffffffffffffffffffffffffffffffffffff1673ffffffffffffffffffffffffffffffffffffffff16815260200190815260200160002060020160006101000a81548173ffffffffffffffffffffffffffffffffffffffff021916908373ffffffffffffffffffffffffffffffffffffffff160217905550836000808373ffffffffffffffffffffffffffffffffffffffff1673ffffffffffffffffffffffffffffffffffffffff1681526020019081526020016000206003019081612eb89190614f21565b50826000808373ffffffffffffffffffffffffffffffffffffffff1673ffffffffffffffffffffffffffffffffffffffff1681526020019081526020016000206004019081612f079190614f21565b50816000808373ffffffffffffffffffffffffffffffffffffffff1673ffffffffffffffffffffffffffffffffffffffff16815260200190815260200160002060050181905550600060405180604001604052804281526020016040518060400160405280600781526020017f53454554494e47000000000000000000000000000000000000000000000000008152508152509050806000808473ffffffffffffffffffffffffffffffffffffffff1673ffffffffffffffffffffffffffffffffffffffff16815260200190815260200160002060060160008060008673ffffffffffffffffffffffffffffffffffffffff1673ffffffffffffffffffffffffffffffffffffffff16815260200190815260200160002060000154815260200190815260200160002060008201518160000155602082015181600101908161304f9190614f21565b5090505060008060008473ffffffffffffffffffffffffffffffffffffffff1673ffffffffffffffffffffffffffffffffffffffff1681526020019081526020016000206006016000600181526020019081526020016000206000018190555060008060008473ffffffffffffffffffffffffffffffffffffffff1673ffffffffffffffffffffffffffffffffffffffff1681526020019081526020016000206006016000600281526020019081526020016000206000018190555060008060008473ffffffffffffffffffffffffffffffffffffffff1673ffffffffffffffffffffffffffffffffffffffff1681526020019081526020016000206006016000600381526020019081526020016000206000018190555060008060008473ffffffffffffffffffffffffffffffffffffffff1673ffffffffffffffffffffffffffffffffffffffff168152602001908152602001600020600601600060048152602001908152602001600020600001819055506002829080600181540180825580915050600190039060005260206000200160009091909190916101000a81548173ffffffffffffffffffffffffffffffffffffffff021916908373ffffffffffffffffffffffffffffffffffffffff16021790555060016040518061010001604052806000808673ffffffffffffffffffffffffffffffffffffffff1673ffffffffffffffffffffffffffffffffffffffff1681526020019081526020016000206000015481526020013373ffffffffffffffffffffffffffffffffffffffff1681526020018473ffffffffffffffffffffffffffffffffffffffff1681526020018781526020018681526020018581526020014281526020016040518060400160405280600781526020017f53454554494e470000000000000000000000000000000000000000000000000081525081525090806001815401808255809150506001900390600052602060002090600802016000909190919091506000820151816000015560208201518160010160006101000a81548173ffffffffffffffffffffffffffffffffffffffff021916908373ffffffffffffffffffffffffffffffffffffffff16021790555060408201518160020160006101000a81548173ffffffffffffffffffffffffffffffffffffffff021916908373ffffffffffffffffffffffffffffffffffffffff16021790555060608201518160030190816133da9190614f21565b5060808201518160040190816133f09190614f21565b5060a0820151816005015560c0820151816006015560e082015181600701908161341a9190614f21565b50505060046040518061010001604052806000808673ffffffffffffffffffffffffffffffffffffffff1673ffffffffffffffffffffffffffffffffffffffff1681526020019081526020016000206000015481526020016000808673ffffffffffffffffffffffffffffffffffffffff1673ffffffffffffffffffffffffffffffffffffffff16815260200190815260200160002060010160009054906101000a900473ffffffffffffffffffffffffffffffffffffffff1673ffffffffffffffffffffffffffffffffffffffff1681526020016000808673ffffffffffffffffffffffffffffffffffffffff1673ffffffffffffffffffffffffffffffffffffffff16815260200190815260200160002060020160009054906101000a900473ffffffffffffffffffffffffffffffffffffffff1673ffffffffffffffffffffffffffffffffffffffff1681526020016000808673ffffffffffffffffffffffffffffffffffffffff1673ffffffffffffffffffffffffffffffffffffffff16815260200190815260200160002060030180546135b890614d44565b80601f01602080910402602001604051908101604052809291908181526020018280546135e490614d44565b80156136315780601f1061360657610100808354040283529160200191613631565b820191906000526020600020905b81548152906001019060200180831161361457829003601f168201915b505050505081526020016000808673ffffffffffffffffffffffffffffffffffffffff1673ffffffffffffffffffffffffffffffffffffffff168152602001908152602001600020600401805461368790614d44565b80601f01602080910402602001604051908101604052809291908181526020018280546136b390614d44565b80156137005780601f106136d557610100808354040283529160200191613700565b820191906000526020600020905b8154815290600101906020018083116136e357829003601f168201915b505050505081526020016000808673ffffffffffffffffffffffffffffffffffffffff1673ffffffffffffffffffffffffffffffffffffffff1681526020019081526020016000206005015481526020016000808673ffffffffffffffffffffffffffffffffffffffff1673ffffffffffffffffffffffffffffffffffffffff16815260200190815260200160002060060160008081526020019081526020016000206000015481526020016000808673ffffffffffffffffffffffffffffffffffffffff1673ffffffffffffffffffffffffffffffffffffffff1681526020019081526020016000206006016000808152602001908152602001600020600101805461380c90614d44565b80601f016020809104026020016040519081016040528092919081815260200182805461383890614d44565b80156138855780601f1061385a57610100808354040283529160200191613885565b820191906000526020600020905b81548152906001019060200180831161386857829003601f168201915b505050505081525090806001815401808255809150506001900390600052602060002090600802016000909190919091506000820151816000015560208201518160010160006101000a81548173ffffffffffffffffffffffffffffffffffffffff021916908373ffffffffffffffffffffffffffffffffffffffff16021790555060408201518160020160006101000a81548173ffffffffffffffffffffffffffffffffffffffff021916908373ffffffffffffffffffffffffffffffffffffffff16021790555060608201518160030190816139639190614f21565b5060808201518160040190816139799190614f21565b5060a0820151816005015560c0820151816006015560e08201518160070190816139a39190614f21565b5050505050505050565b6060600380546139bc90614d44565b80601f01602080910402602001604051908101604052809291908181526020018280546139e890614d44565b8015613a355780601f10613a0a57610100808354040283529160200191613a35565b820191906000526020600020905b815481529060010190602001808311613a1857829003601f168201915b5050505050905090565b8060039081613a4e9190614f21565b5050565b60005b600480549050811015613d60578173ffffffffffffffffffffffffffffffffffffffff1660048281548110613a8d57613a8c615149565b5b906000526020600020906008020160020160009054906101000a900473ffffffffffffffffffffffffffffffffffffffff1673ffffffffffffffffffffffffffffffffffffffff1603613d4d5760008190505b6001600480549050613af29190615178565b811015613c8a576004600182613b0891906151ac565b81548110613b1957613b18615149565b5b906000526020600020906008020160048281548110613b3b57613b3a615149565b5b9060005260206000209060080201600082015481600001556001820160009054906101000a900473ffffffffffffffffffffffffffffffffffffffff168160010160006101000a81548173ffffffffffffffffffffffffffffffffffffffff021916908373ffffffffffffffffffffffffffffffffffffffff1602179055506002820160009054906101000a900473ffffffffffffffffffffffffffffffffffffffff168160020160006101000a81548173ffffffffffffffffffffffffffffffffffffffff021916908373ffffffffffffffffffffffffffffffffffffffff16021790555060038201816003019081613c3591906151f6565b5060048201816004019081613c4a91906151f6565b50600582015481600501556006820154816006015560078201816007019081613c7391906151f6565b509050508080613c8290614ccd565b915050613ae0565b506004805480613c9d57613c9c6152de565b5b60019003818190600052602060002090600802016000808201600090556001820160006101000a81549073ffffffffffffffffffffffffffffffffffffffff02191690556002820160006101000a81549073ffffffffffffffffffffffffffffffffffffffff0219169055600382016000613d1891906144d2565b600482016000613d2891906144d2565b60058201600090556006820160009055600782016000613d4891906144d2565b505090555b8080613d5890614ccd565b915050613a55565b5050565b60606001805480602002602001604051908101604052809291908181526020016000905b8282101561403b578382906000526020600020906008020160405180610100016040529081600082015481526020016001820160009054906101000a900473ffffffffffffffffffffffffffffffffffffffff1673ffffffffffffffffffffffffffffffffffffffff1673ffffffffffffffffffffffffffffffffffffffff1681526020016002820160009054906101000a900473ffffffffffffffffffffffffffffffffffffffff1673ffffffffffffffffffffffffffffffffffffffff1673ffffffffffffffffffffffffffffffffffffffff168152602001600382018054613e7290614d44565b80601f0160208091040260200160405190810160405280929190818152602001828054613e9e90614d44565b8015613eeb5780601f10613ec057610100808354040283529160200191613eeb565b820191906000526020600020905b815481529060010190602001808311613ece57829003601f168201915b50505050508152602001600482018054613f0490614d44565b80601f0160208091040260200160405190810160405280929190818152602001828054613f3090614d44565b8015613f7d5780601f10613f5257610100808354040283529160200191613f7d565b820191906000526020600020905b815481529060010190602001808311613f6057829003601f168201915b505050505081526020016005820154815260200160068201548152602001600782018054613faa90614d44565b80601f0160208091040260200160405190810160405280929190818152602001828054613fd690614d44565b80156140235780601f10613ff857610100808354040283529160200191614023565b820191906000526020600020905b81548152906001019060200180831161400657829003601f168201915b50505050508152505081526020019060010190613d88565b50505050905090565b6000806000606080600080606060008060008b73ffffffffffffffffffffffffffffffffffffffff1673ffffffffffffffffffffffffffffffffffffffff16815260200190815260200160002060000154905060008a90506000808c73ffffffffffffffffffffffffffffffffffffffff1673ffffffffffffffffffffffffffffffffffffffff168152602001908152602001600020600001546000808d73ffffffffffffffffffffffffffffffffffffffff1673ffffffffffffffffffffffffffffffffffffffff16815260200190815260200160002060010160009054906101000a900473ffffffffffffffffffffffffffffffffffffffff166000808e73ffffffffffffffffffffffffffffffffffffffff1673ffffffffffffffffffffffffffffffffffffffff16815260200190815260200160002060020160009054906101000a900473ffffffffffffffffffffffffffffffffffffffff166000808f73ffffffffffffffffffffffffffffffffffffffff1673ffffffffffffffffffffffffffffffffffffffff1681526020019081526020016000206003016000808673ffffffffffffffffffffffffffffffffffffffff1673ffffffffffffffffffffffffffffffffffffffff1681526020019081526020016000206004016000808773ffffffffffffffffffffffffffffffffffffffff1673ffffffffffffffffffffffffffffffffffffffff168152602001908152602001600020600501546000808873ffffffffffffffffffffffffffffffffffffffff1673ffffffffffffffffffffffffffffffffffffffff1681526020019081526020016000206006016000898152602001908152602001600020600001546000808973ffffffffffffffffffffffffffffffffffffffff1673ffffffffffffffffffffffffffffffffffffffff16815260200190815260200160002060060160008a815260200190815260200160002060010184805461431d90614d44565b80601f016020809104026020016040519081016040528092919081815260200182805461434990614d44565b80156143965780601f1061436b57610100808354040283529160200191614396565b820191906000526020600020905b81548152906001019060200180831161437957829003601f168201915b505050505094508380546143a990614d44565b80601f01602080910402602001604051908101604052809291908181526020018280546143d590614d44565b80156144225780601f106143f757610100808354040283529160200191614422565b820191906000526020600020905b81548152906001019060200180831161440557829003601f168201915b5050505050935080805461443590614d44565b80601f016020809104026020016040519081016040528092919081815260200182805461446190614d44565b80156144ae5780601f10614483576101008083540402835291602001916144ae565b820191906000526020600020905b81548152906001019060200180831161449157829003601f168201915b50505050509050995099509950995099509950995099505050919395975091939597565b5080546144de90614d44565b6000825580601f106144f0575061450f565b601f01602090049060005260206000209081019061450e9190614512565b5b50565b5b8082111561452b576000816000905550600101614513565b5090565b6000604051905090565b600080fd5b600080fd5b600073ffffffffffffffffffffffffffffffffffffffff82169050919050565b600061456e82614543565b9050919050565b61457e81614563565b811461458957600080fd5b50565b60008135905061459b81614575565b92915050565b6000602082840312156145b7576145b6614539565b5b60006145c58482850161458c565b91505092915050565b6000819050919050565b6145e1816145ce565b82525050565b600060a0820190506145fc60008301886145d8565b61460960208301876145d8565b61461660408301866145d8565b61462360608301856145d8565b61463060808301846145d8565b9695505050505050565b600081519050919050565b600082825260208201905092915050565b6000819050602082019050919050565b61466f81614563565b82525050565b60006146818383614666565b60208301905092915050565b6000602082019050919050565b60006146a58261463a565b6146af8185614645565b93506146ba83614656565b8060005b838110156146eb5781516146d28882614675565b97506146dd8361468d565b9250506001810190506146be565b5085935050505092915050565b60006020820190508181036000830152614712818461469a565b905092915050565b600081519050919050565b600082825260208201905092915050565b6000819050602082019050919050565b61474f816145ce565b82525050565b600081519050919050565b600082825260208201905092915050565b60005b8381101561478f578082015181840152602081019050614774565b60008484015250505050565b6000601f19601f8301169050919050565b60006147b782614755565b6147c18185614760565b93506147d1818560208601614771565b6147da8161479b565b840191505092915050565b6000610100830160008301516147fe6000860182614746565b5060208301516148116020860182614666565b5060408301516148246040860182614666565b506060830151848203606086015261483c82826147ac565b9150506080830151848203608086015261485682826147ac565b91505060a083015161486b60a0860182614746565b5060c083015161487e60c0860182614746565b5060e083015184820360e086015261489682826147ac565b9150508091505092915050565b60006148af83836147e5565b905092915050565b6000602082019050919050565b60006148cf8261471a565b6148d98185614725565b9350836020820285016148eb85614736565b8060005b85811015614927578484038952815161490885826148a3565b9450614913836148b7565b925060208a019950506001810190506148ef565b50829750879550505050505092915050565b6000602082019050818103600083015261495381846148c4565b905092915050565b600080fd5b600080fd5b7f4e487b7100000000000000000000000000000000000000000000000000000000600052604160045260246000fd5b61499d8261479b565b810181811067ffffffffffffffff821117156149bc576149bb614965565b5b80604052505050565b60006149cf61452f565b90506149db8282614994565b919050565b600067ffffffffffffffff8211156149fb576149fa614965565b5b614a048261479b565b9050602081019050919050565b82818337600083830152505050565b6000614a33614a2e846149e0565b6149c5565b905082815260208101848484011115614a4f57614a4e614960565b5b614a5a848285614a11565b509392505050565b600082601f830112614a7757614a7661495b565b5b8135614a87848260208601614a20565b91505092915050565b614a99816145ce565b8114614aa457600080fd5b50565b600081359050614ab681614a90565b92915050565b600080600060608486031215614ad557614ad4614539565b5b600084013567ffffffffffffffff811115614af357614af261453e565b5b614aff86828701614a62565b935050602084013567ffffffffffffffff811115614b2057614b1f61453e565b5b614b2c86828701614a62565b9250506040614b3d86828701614aa7565b9150509250925092565b600082825260208201905092915050565b6000614b6382614755565b614b6d8185614b47565b9350614b7d818560208601614771565b614b868161479b565b840191505092915050565b60006020820190508181036000830152614bab8184614b58565b905092915050565b600060208284031215614bc957614bc8614539565b5b600082013567ffffffffffffffff811115614be757614be661453e565b5b614bf384828501614a62565b91505092915050565b614c0581614563565b82525050565b600061010082019050614c21600083018b6145d8565b614c2e602083018a614bfc565b614c3b6040830189614bfc565b8181036060830152614c4d8188614b58565b90508181036080830152614c618187614b58565b9050614c7060a08301866145d8565b614c7d60c08301856145d8565b81810360e0830152614c8f8184614b58565b90509998505050505050505050565b7f4e487b7100000000000000000000000000000000000000000000000000000000600052601160045260246000fd5b6000614cd8826145ce565b91507fffffffffffffffffffffffffffffffffffffffffffffffffffffffffffffffff8203614d0a57614d09614c9e565b5b600182019050919050565b7f4e487b7100000000000000000000000000000000000000000000000000000000600052602260045260246000fd5b60006002820490506001821680614d5c57607f821691505b602082108103614d6f57614d6e614d15565b5b50919050565b60008190508160005260206000209050919050565b60006020601f8301049050919050565b600082821b905092915050565b600060088302614dd77fffffffffffffffffffffffffffffffffffffffffffffffffffffffffffffffff82614d9a565b614de18683614d9a565b95508019841693508086168417925050509392505050565b6000819050919050565b6000614e1e614e19614e14846145ce565b614df9565b6145ce565b9050919050565b6000819050919050565b614e3883614e03565b614e4c614e4482614e25565b848454614da7565b825550505050565b600090565b614e61614e54565b614e6c818484614e2f565b505050565b5b81811015614e9057614e85600082614e59565b600181019050614e72565b5050565b601f821115614ed557614ea681614d75565b614eaf84614d8a565b81016020851015614ebe578190505b614ed2614eca85614d8a565b830182614e71565b50505b505050565b600082821c905092915050565b6000614ef860001984600802614eda565b1980831691505092915050565b6000614f118383614ee7565b9150826002028217905092915050565b614f2a82614755565b67ffffffffffffffff811115614f4357614f42614965565b5b614f4d8254614d44565b614f58828285614e94565b600060209050601f831160018114614f8b5760008415614f79578287015190505b614f838582614f05565b865550614feb565b601f198416614f9986614d75565b60005b82811015614fc157848901518255600182019150602085019450602081019050614f9c565b86831015614fde5784890151614fda601f891682614ee7565b8355505b6001600288020188555050505b505050505050565b60008160601b9050919050565b600061500b82614ff3565b9050919050565b600061501d82615000565b9050919050565b61503561503082614563565b615012565b82525050565b6000819050919050565b615056615051826145ce565b61503b565b82525050565b60006150688285615024565b6014820191506150788284615045565b6020820191508190509392505050565b600081519050919050565b600081905092915050565b60006150a982615088565b6150b38185615093565b93506150c3818560208601614771565b80840191505092915050565b60006150db828461509e565b915081905092915050565b6000819050919050565b6150f9816150e6565b811461510457600080fd5b50565b600081519050615116816150f0565b92915050565b60006020828403121561513257615131614539565b5b600061514084828501615107565b91505092915050565b7f4e487b7100000000000000000000000000000000000000000000000000000000600052603260045260246000fd5b6000615183826145ce565b915061518e836145ce565b92508282039050818111156151a6576151a5614c9e565b5b92915050565b60006151b7826145ce565b91506151c2836145ce565b92508282019050808211156151da576151d9614c9e565b5b92915050565b6000815490506151ef81614d44565b9050919050565b8181036152045750506152dc565b61520d826151e0565b67ffffffffffffffff81111561522657615225614965565b5b6152308254614d44565b61523b828285614e94565b6000601f83116001811461526a5760008415615258578287015490505b6152628582614f05565b8655506152d5565b601f19841661527887614d75565b965061528386614d75565b60005b828110156152ab57848901548255600182019150600185019450602081019050615286565b868310156152c857848901546152c4601f891682614ee7565b8355505b6001600288020188555050505b5050505050505b565b7f4e487b7100000000000000000000000000000000000000000000000000000000600052603160045260246000fdfea26469706673582212207fa6c53be3894324d21536f8734affbf408564d1f91385889972ea6d2e89176a64736f6c63430008110033",
  "immutableReferences": {},
  "source": "//SPDX-License-Identifier: MIT\r\n\r\npragma solidity >=0.7.0 <0.9.0;\r\n\r\ncontract SupplyChain {\r\n    struct Product {\r\n        uint Serial;\r\n        address Manufacturer;\r\n        address ProductID;\r\n        string ProductName;\r\n        string ProductType;\r\n        uint ProductPrice;\r\n        mapping(uint => StateTime) State;\r\n    }\r\n    struct StateTime {\r\n        uint TimeStamp;\r\n        string State;\r\n    }\r\n\r\n    struct ProductDetail {\r\n        uint Serial;\r\n        address Manufacturer;\r\n        address ProductID;\r\n        string ProductName;\r\n        string ProductType;\r\n        uint ProductPrice;\r\n        uint TimeStamp;\r\n        string State;\r\n    }\r\n\r\n    mapping(address => Product) myproduct;\r\n    ProductDetail[] products;\r\n    address[] ProductAddresses;\r\n    string Manufacturer_Address;\r\n\r\n    ProductDetail[] N_Products;\r\n\r\n    function enterAddress(string memory _Manufacturer_Address) public {\r\n        Manufacturer_Address = _Manufacturer_Address;\r\n    }\r\n\r\n    function getManufacturerAddress() public view returns (string memory) {\r\n        return Manufacturer_Address;\r\n    }\r\n\r\n    function createProduct(\r\n        string memory _ProductName,\r\n        string memory _ProductType,\r\n        uint _ProductPrice\r\n    ) public {\r\n        address addr = address(\r\n            bytes20(sha256(abi.encodePacked(msg.sender, block.timestamp)))\r\n        );\r\n        myproduct[addr].Serial = 0;\r\n\r\n        myproduct[addr].Manufacturer = msg.sender;\r\n        myproduct[addr].ProductID = addr;\r\n        myproduct[addr].ProductName = _ProductName;\r\n        myproduct[addr].ProductType = _ProductType;\r\n        myproduct[addr].ProductPrice = _ProductPrice;\r\n        StateTime memory _state = StateTime(block.timestamp, \"SEETING\");\r\n        myproduct[addr].State[myproduct[addr].Serial] = _state;\r\n\r\n        myproduct[addr].State[1].TimeStamp = 0;\r\n        myproduct[addr].State[2].TimeStamp = 0;\r\n        myproduct[addr].State[3].TimeStamp = 0;\r\n        myproduct[addr].State[4].TimeStamp = 0;\r\n\r\n        ProductAddresses.push(addr);\r\n        products.push(\r\n            ProductDetail(\r\n                myproduct[addr].Serial,\r\n                msg.sender,\r\n                addr,\r\n                _ProductName,\r\n                _ProductType,\r\n                _ProductPrice,\r\n                block.timestamp,\r\n                \"SEETING\"\r\n            )\r\n        );\r\n\r\n        N_Products.push(\r\n            ProductDetail(\r\n                myproduct[addr].Serial,\r\n                myproduct[addr].Manufacturer,\r\n                myproduct[addr].ProductID,\r\n                myproduct[addr].ProductName,\r\n                myproduct[addr].ProductType,\r\n                myproduct[addr].ProductPrice,\r\n                myproduct[addr].State[0].TimeStamp,\r\n                myproduct[addr].State[0].State\r\n            )\r\n        );\r\n    }\r\n\r\n    function ChangeState(address addr) public {\r\n        myproduct[addr].Serial++;\r\n        if (myproduct[addr].Serial == 1) {\r\n            StateTime memory _state = StateTime(block.timestamp, \"PROCESS\");\r\n            myproduct[addr].State[myproduct[addr].Serial] = _state;\r\n            myproduct[addr].State[1].TimeStamp = block.timestamp;\r\n            Delete(addr);\r\n\r\n            products.push(\r\n                ProductDetail(\r\n                    myproduct[addr].Serial,\r\n                    msg.sender,\r\n                    addr,\r\n                    myproduct[addr].ProductName,\r\n                    myproduct[addr].ProductType,\r\n                    myproduct[addr].ProductPrice,\r\n                    block.timestamp,\r\n                    \"PROCESS\"\r\n                )\r\n            );\r\n\r\n            N_Products.push(\r\n                ProductDetail(\r\n                    myproduct[addr].Serial,\r\n                    msg.sender,\r\n                    addr,\r\n                    myproduct[addr].ProductName,\r\n                    myproduct[addr].ProductType,\r\n                    myproduct[addr].ProductPrice,\r\n                    block.timestamp,\r\n                    \"PROCESS\"\r\n                )\r\n            );\r\n        }\r\n        if (myproduct[addr].Serial == 2) {\r\n            StateTime memory _state = StateTime(block.timestamp, \"FINISH\");\r\n            myproduct[addr].State[myproduct[addr].Serial] = _state;\r\n            myproduct[addr].State[2].TimeStamp = block.timestamp;\r\n            Delete(addr);\r\n\r\n            products.push(\r\n                ProductDetail(\r\n                    myproduct[addr].Serial,\r\n                    msg.sender,\r\n                    addr,\r\n                    myproduct[addr].ProductName,\r\n                    myproduct[addr].ProductType,\r\n                    myproduct[addr].ProductPrice,\r\n                    block.timestamp,\r\n                    \"FINISH\"\r\n                )\r\n            );\r\n\r\n            N_Products.push(\r\n                ProductDetail(\r\n                    myproduct[addr].Serial,\r\n                    msg.sender,\r\n                    addr,\r\n                    myproduct[addr].ProductName,\r\n                    myproduct[addr].ProductType,\r\n                    myproduct[addr].ProductPrice,\r\n                    block.timestamp,\r\n                    \"FINISH\"\r\n                )\r\n            );\r\n        }\r\n        if (myproduct[addr].Serial == 3) {\r\n            StateTime memory _state = StateTime(block.timestamp, \"IN_TRANSIT\");\r\n            myproduct[addr].State[myproduct[addr].Serial] = _state;\r\n            myproduct[addr].State[3].TimeStamp = block.timestamp;\r\n            Delete(addr);\r\n\r\n            products.push(\r\n                ProductDetail(\r\n                    myproduct[addr].Serial,\r\n                    msg.sender,\r\n                    addr,\r\n                    myproduct[addr].ProductName,\r\n                    myproduct[addr].ProductType,\r\n                    myproduct[addr].ProductPrice,\r\n                    block.timestamp,\r\n                    \"IN_TRANSIT\"\r\n                )\r\n            );\r\n\r\n            N_Products.push(\r\n                ProductDetail(\r\n                    myproduct[addr].Serial,\r\n                    msg.sender,\r\n                    addr,\r\n                    myproduct[addr].ProductName,\r\n                    myproduct[addr].ProductType,\r\n                    myproduct[addr].ProductPrice,\r\n                    block.timestamp,\r\n                    \"IN_TRANSIT\"\r\n                )\r\n            );\r\n        }\r\n        if (myproduct[addr].Serial == 4) {\r\n            StateTime memory _state = StateTime(block.timestamp, \"ARRIVED\");\r\n            myproduct[addr].State[myproduct[addr].Serial] = _state;\r\n            myproduct[addr].State[4].TimeStamp = block.timestamp;\r\n            Delete(addr);\r\n\r\n            products.push(\r\n                ProductDetail(\r\n                    myproduct[addr].Serial,\r\n                    msg.sender,\r\n                    addr,\r\n                    myproduct[addr].ProductName,\r\n                    myproduct[addr].ProductType,\r\n                    myproduct[addr].ProductPrice,\r\n                    block.timestamp,\r\n                    \"ARRIVED\"\r\n                )\r\n            );\r\n\r\n            N_Products.push(\r\n                ProductDetail(\r\n                    myproduct[addr].Serial,\r\n                    msg.sender,\r\n                    addr,\r\n                    myproduct[addr].ProductName,\r\n                    myproduct[addr].ProductType,\r\n                    myproduct[addr].ProductPrice,\r\n                    block.timestamp,\r\n                    \"ARRIVED\"\r\n                )\r\n            );\r\n        }\r\n    }\r\n\r\n    function getAllProductAddr() external view returns (address[] memory) {\r\n        return ProductAddresses;\r\n    }\r\n\r\n    function getAllProduct() public view returns (ProductDetail[] memory) {\r\n        return products;\r\n    }\r\n\r\n    function getProductState(\r\n        address id\r\n    ) public view returns (uint, uint, uint, uint, uint) {\r\n        return (\r\n            myproduct[id].State[0].TimeStamp,\r\n            myproduct[id].State[1].TimeStamp,\r\n            myproduct[id].State[2].TimeStamp,\r\n            myproduct[id].State[3].TimeStamp,\r\n            myproduct[id].State[4].TimeStamp\r\n        );\r\n    }\r\n\r\n    function getProduct(\r\n        address id\r\n    )\r\n        public\r\n        view\r\n        returns (\r\n            uint,\r\n            address,\r\n            address,\r\n            string memory,\r\n            string memory,\r\n            uint,\r\n            uint,\r\n            string memory\r\n        )\r\n    {\r\n        uint _serial = myproduct[id].Serial;\r\n        address _id = id;\r\n        return (\r\n            myproduct[id].Serial,\r\n            myproduct[id].Manufacturer,\r\n            myproduct[id].ProductID,\r\n            myproduct[id].ProductName,\r\n            myproduct[_id].ProductType,\r\n            myproduct[_id].ProductPrice,\r\n            myproduct[_id].State[_serial].TimeStamp,\r\n            myproduct[_id].State[_serial].State\r\n        );\r\n    }\r\n\r\n    function Delete(address id) public {\r\n        for (uint i = 0; i < N_Products.length; i++) {\r\n            if (N_Products[i].ProductID == id) {\r\n                for (uint j = i; j < N_Products.length - 1; j++) {\r\n                    N_Products[j] = N_Products[j + 1];\r\n                }\r\n                N_Products.pop();\r\n            }\r\n        }\r\n    }\r\n\r\n    // function get() public view returns(uint){\r\n    //     return products[0].Serial;\r\n\r\n    // }\r\n\r\n    // function GetN_Product(uint _serial) public {\r\n    //     for (uint i = 0; i < 1; i++) {\r\n    //         if (myproduct[ProductAddresses[i]].Serial == _serial) {\r\n    //             N_Products.push(\r\n    //                 ProductDetail(\r\n    //                     myproduct[ProductAddresses[i]].Serial,\r\n    //                     myproduct[ProductAddresses[i]].Manufacturer,\r\n    //                     myproduct[ProductAddresses[i]].ProductID,\r\n    //                     myproduct[ProductAddresses[i]].ProductName,\r\n    //                     myproduct[ProductAddresses[i]].ProductType,\r\n    //                     myproduct[ProductAddresses[i]].ProductPrice,\r\n    //                     myproduct[ProductAddresses[i]].State[_serial].TimeStamp,\r\n    //                     myproduct[ProductAddresses[i]].State[_serial].State\r\n    //                 )\r\n    //             );\r\n    //         }\r\n    //     }\r\n    // }\r\n\r\n    function N_Product() public view returns (ProductDetail[] memory) {\r\n        return N_Products;\r\n    }\r\n\r\n    // }\r\n}\r\n",
  "sourcePath": "C:\\Users\\lulu\\final_supplychain\\truffle_connect_web3\\contracts\\supplychain.sol",
  "compiler": {
    "name": "solc",
    "version": "0.8.17+commit.8df45f5f.Emscripten.clang"
  },
  "schemaVersion": "3.4.14",
  "updatedAt": "2023-09-01T01:56:47.905Z",
  "networkType": "ethereum",
  "devdoc": {
    "kind": "dev",
    "methods": {},
    "version": 1
  },
  "userdoc": {
    "kind": "user",
    "methods": {},
    "version": 1
  }
}