{
  "contractName": "SupplyChain",
  "abi": [
    {
      "inputs": [
        {
          "internalType": "string",
          "name": "_Manufacturer_Address",
          "type": "string"
        }
      ],
      "name": "enterAddress",
      "outputs": [],
      "stateMutability": "nonpayable",
      "type": "function"
    },
    {
      "inputs": [],
      "name": "getManufacturerAddress",
      "outputs": [
        {
          "internalType": "string",
          "name": "",
          "type": "string"
        }
      ],
      "stateMutability": "view",
      "type": "function",
      "constant": true
    },
    {
      "inputs": [
        {
          "internalType": "string",
          "name": "_ProductName",
          "type": "string"
        },
        {
          "internalType": "string",
          "name": "_ProductType",
          "type": "string"
        },
        {
          "internalType": "uint256",
          "name": "_ProductPrice",
          "type": "uint256"
        }
      ],
      "name": "createProduct",
      "outputs": [],
      "stateMutability": "nonpayable",
      "type": "function"
    },
    {
      "inputs": [
        {
          "internalType": "address",
          "name": "addr",
          "type": "address"
        }
      ],
      "name": "ChangeState",
      "outputs": [],
      "stateMutability": "nonpayable",
      "type": "function"
    },
    {
      "inputs": [],
      "name": "getAllProductAddr",
      "outputs": [
        {
          "internalType": "address[]",
          "name": "",
          "type": "address[]"
        }
      ],
      "stateMutability": "view",
      "type": "function",
      "constant": true
    },
    {
      "inputs": [],
      "name": "getAllProduct",
      "outputs": [
        {
          "components": [
            {
              "internalType": "uint256",
              "name": "Serial",
              "type": "uint256"
            },
            {
              "internalType": "address",
              "name": "Manufacturer",
              "type": "address"
            },
            {
              "internalType": "address",
              "name": "ProductID",
              "type": "address"
            },
            {
              "internalType": "string",
              "name": "ProductName",
              "type": "string"
            },
            {
              "internalType": "string",
              "name": "ProductType",
              "type": "string"
            },
            {
              "internalType": "uint256",
              "name": "ProductPrice",
              "type": "uint256"
            },
            {
              "internalType": "uint256",
              "name": "TimeStamp",
              "type": "uint256"
            },
            {
              "internalType": "string",
              "name": "State",
              "type": "string"
            }
          ],
          "internalType": "struct SupplyChain.ProductDetail[]",
          "name": "",
          "type": "tuple[]"
        }
      ],
      "stateMutability": "view",
      "type": "function",
      "constant": true
    },
    {
      "inputs": [
        {
          "internalType": "address",
          "name": "id",
          "type": "address"
        }
      ],
      "name": "getProductState",
      "outputs": [
        {
          "internalType": "uint256",
          "name": "",
          "type": "uint256"
        },
        {
          "internalType": "uint256",
          "name": "",
          "type": "uint256"
        },
        {
          "internalType": "uint256",
          "name": "",
          "type": "uint256"
        },
        {
          "internalType": "uint256",
          "name": "",
          "type": "uint256"
        },
        {
          "internalType": "uint256",
          "name": "",
          "type": "uint256"
        }
      ],
      "stateMutability": "view",
      "type": "function",
      "constant": true
    },
    {
      "inputs": [
        {
          "internalType": "address",
          "name": "id",
          "type": "address"
        }
      ],
      "name": "getProduct",
      "outputs": [
        {
          "internalType": "uint256",
          "name": "",
          "type": "uint256"
        },
        {
          "internalType": "address",
          "name": "",
          "type": "address"
        },
        {
          "internalType": "address",
          "name": "",
          "type": "address"
        },
        {
          "internalType": "string",
          "name": "",
          "type": "string"
        },
        {
          "internalType": "string",
          "name": "",
          "type": "string"
        },
        {
          "internalType": "uint256",
          "name": "",
          "type": "uint256"
        },
        {
          "internalType": "uint256",
          "name": "",
          "type": "uint256"
        },
        {
          "internalType": "string",
          "name": "",
          "type": "string"
        }
      ],
      "stateMutability": "view",
      "type": "function",
      "constant": true
    }
  ],
  "bytecode": "0x608060405234801561001057600080fd5b5061269c806100206000396000f3fe608060405234801561001057600080fd5b50600436106100885760003560e01c8063bd03adf01161005b578063bd03adf014610117578063c305f34014610135578063d055a75f14610151578063d9aba9ce1461016f57610088565b806308071e6d1461008d5780634f77df2a146100c15780638319f760146100dd578063a1422209146100fb575b600080fd5b6100a760048036038101906100a29190611abe565b6101a6565b6040516100b8959493929190611b04565b60405180910390f35b6100db60048036038101906100d69190611abe565b610373565b005b6100e5610a79565b6040516100f29190611c15565b60405180910390f35b61011560048036038101906101109190611da9565b610b07565b005b61011f611239565b60405161012c9190611eb3565b60405180910390f35b61014f600480360381019061014a9190611ed5565b6112cb565b005b6101596112de565b60405161016691906120f7565b60405180910390f35b61018960048036038101906101849190611abe565b6115be565b60405161019d989796959493929190612128565b60405180910390f35b60008060008060008060008773ffffffffffffffffffffffffffffffffffffffff1673ffffffffffffffffffffffffffffffffffffffff1681526020019081526020016000206006016000808152602001908152602001600020600001546000808873ffffffffffffffffffffffffffffffffffffffff1673ffffffffffffffffffffffffffffffffffffffff168152602001908152602001600020600601600060018152602001908152602001600020600001546000808973ffffffffffffffffffffffffffffffffffffffff1673ffffffffffffffffffffffffffffffffffffffff168152602001908152602001600020600601600060028152602001908152602001600020600001546000808a73ffffffffffffffffffffffffffffffffffffffff1673ffffffffffffffffffffffffffffffffffffffff168152602001908152602001600020600601600060038152602001908152602001600020600001546000808b73ffffffffffffffffffffffffffffffffffffffff1673ffffffffffffffffffffffffffffffffffffffff168152602001908152602001600020600601600060048152602001908152602001600020600001549450945094509450945091939590929450565b6000808273ffffffffffffffffffffffffffffffffffffffff1673ffffffffffffffffffffffffffffffffffffffff16815260200190815260200160002060000160008154809291906103c5906121ea565b919050555060016000808373ffffffffffffffffffffffffffffffffffffffff1673ffffffffffffffffffffffffffffffffffffffff168152602001908152602001600020600001540361057557600060405180604001604052804281526020016040518060400160405280600781526020017f50524f43455353000000000000000000000000000000000000000000000000008152508152509050806000808473ffffffffffffffffffffffffffffffffffffffff1673ffffffffffffffffffffffffffffffffffffffff16815260200190815260200160002060060160008060008673ffffffffffffffffffffffffffffffffffffffff1673ffffffffffffffffffffffffffffffffffffffff168152602001908152602001600020600001548152602001908152602001600020600082015181600001556020820151816001019081610514919061243e565b50905050426000808473ffffffffffffffffffffffffffffffffffffffff1673ffffffffffffffffffffffffffffffffffffffff16815260200190815260200160002060060160006001815260200190815260200160002060000181905550505b60026000808373ffffffffffffffffffffffffffffffffffffffff1673ffffffffffffffffffffffffffffffffffffffff168152602001908152602001600020600001540361072057600060405180604001604052804281526020016040518060400160405280600681526020017f46494e49534800000000000000000000000000000000000000000000000000008152508152509050806000808473ffffffffffffffffffffffffffffffffffffffff1673ffffffffffffffffffffffffffffffffffffffff16815260200190815260200160002060060160008060008673ffffffffffffffffffffffffffffffffffffffff1673ffffffffffffffffffffffffffffffffffffffff1681526020019081526020016000206000015481526020019081526020016000206000820151816000015560208201518160010190816106bf919061243e565b50905050426000808473ffffffffffffffffffffffffffffffffffffffff1673ffffffffffffffffffffffffffffffffffffffff16815260200190815260200160002060060160006002815260200190815260200160002060000181905550505b60036000808373ffffffffffffffffffffffffffffffffffffffff1673ffffffffffffffffffffffffffffffffffffffff16815260200190815260200160002060000154036108cb57600060405180604001604052804281526020016040518060400160405280600a81526020017f494e5f5452414e534954000000000000000000000000000000000000000000008152508152509050806000808473ffffffffffffffffffffffffffffffffffffffff1673ffffffffffffffffffffffffffffffffffffffff16815260200190815260200160002060060160008060008673ffffffffffffffffffffffffffffffffffffffff1673ffffffffffffffffffffffffffffffffffffffff16815260200190815260200160002060000154815260200190815260200160002060008201518160000155602082015181600101908161086a919061243e565b50905050426000808473ffffffffffffffffffffffffffffffffffffffff1673ffffffffffffffffffffffffffffffffffffffff16815260200190815260200160002060060160006003815260200190815260200160002060000181905550505b60046000808373ffffffffffffffffffffffffffffffffffffffff1673ffffffffffffffffffffffffffffffffffffffff1681526020019081526020016000206000015403610a7657600060405180604001604052804281526020016040518060400160405280600781526020017f41525249564544000000000000000000000000000000000000000000000000008152508152509050806000808473ffffffffffffffffffffffffffffffffffffffff1673ffffffffffffffffffffffffffffffffffffffff16815260200190815260200160002060060160008060008673ffffffffffffffffffffffffffffffffffffffff1673ffffffffffffffffffffffffffffffffffffffff168152602001908152602001600020600001548152602001908152602001600020600082015181600001556020820151816001019081610a15919061243e565b50905050426000808473ffffffffffffffffffffffffffffffffffffffff1673ffffffffffffffffffffffffffffffffffffffff16815260200190815260200160002060060160006004815260200190815260200160002060000181905550505b50565b60606002805480602002602001604051908101604052809291908181526020018280548015610afd57602002820191906000526020600020905b8160009054906101000a900473ffffffffffffffffffffffffffffffffffffffff1673ffffffffffffffffffffffffffffffffffffffff1681526020019060010190808311610ab3575b5050505050905090565b600060023342604051602001610b1e929190612579565b604051602081830303815290604052604051610b3a91906125ec565b602060405180830381855afa158015610b57573d6000803e3d6000fd5b5050506040513d601f19601f82011682018060405250810190610b7a9190612639565b60601c9050336000808373ffffffffffffffffffffffffffffffffffffffff1673ffffffffffffffffffffffffffffffffffffffff16815260200190815260200160002060010160006101000a81548173ffffffffffffffffffffffffffffffffffffffff021916908373ffffffffffffffffffffffffffffffffffffffff160217905550806000808373ffffffffffffffffffffffffffffffffffffffff1673ffffffffffffffffffffffffffffffffffffffff16815260200190815260200160002060020160006101000a81548173ffffffffffffffffffffffffffffffffffffffff021916908373ffffffffffffffffffffffffffffffffffffffff160217905550836000808373ffffffffffffffffffffffffffffffffffffffff1673ffffffffffffffffffffffffffffffffffffffff1681526020019081526020016000206003019081610ccd919061243e565b50826000808373ffffffffffffffffffffffffffffffffffffffff1673ffffffffffffffffffffffffffffffffffffffff1681526020019081526020016000206004019081610d1c919061243e565b50816000808373ffffffffffffffffffffffffffffffffffffffff1673ffffffffffffffffffffffffffffffffffffffff16815260200190815260200160002060050181905550600060405180604001604052804281526020016040518060400160405280600781526020017f53454554494e47000000000000000000000000000000000000000000000000008152508152509050806000808473ffffffffffffffffffffffffffffffffffffffff1673ffffffffffffffffffffffffffffffffffffffff16815260200190815260200160002060060160008060008673ffffffffffffffffffffffffffffffffffffffff1673ffffffffffffffffffffffffffffffffffffffff168152602001908152602001600020600001548152602001908152602001600020600082015181600001556020820151816001019081610e64919061243e565b5090505060008060008473ffffffffffffffffffffffffffffffffffffffff1673ffffffffffffffffffffffffffffffffffffffff1681526020019081526020016000206006016000600181526020019081526020016000206000018190555060008060008473ffffffffffffffffffffffffffffffffffffffff1673ffffffffffffffffffffffffffffffffffffffff1681526020019081526020016000206006016000600281526020019081526020016000206000018190555060008060008473ffffffffffffffffffffffffffffffffffffffff1673ffffffffffffffffffffffffffffffffffffffff1681526020019081526020016000206006016000600381526020019081526020016000206000018190555060008060008473ffffffffffffffffffffffffffffffffffffffff1673ffffffffffffffffffffffffffffffffffffffff168152602001908152602001600020600601600060048152602001908152602001600020600001819055506002829080600181540180825580915050600190039060005260206000200160009091909190916101000a81548173ffffffffffffffffffffffffffffffffffffffff021916908373ffffffffffffffffffffffffffffffffffffffff16021790555060016040518061010001604052806000808673ffffffffffffffffffffffffffffffffffffffff1673ffffffffffffffffffffffffffffffffffffffff1681526020019081526020016000206000015481526020013373ffffffffffffffffffffffffffffffffffffffff1681526020018473ffffffffffffffffffffffffffffffffffffffff1681526020018781526020018681526020018581526020014281526020016040518060400160405280600781526020017f53454554494e470000000000000000000000000000000000000000000000000081525081525090806001815401808255809150506001900390600052602060002090600802016000909190919091506000820151816000015560208201518160010160006101000a81548173ffffffffffffffffffffffffffffffffffffffff021916908373ffffffffffffffffffffffffffffffffffffffff16021790555060408201518160020160006101000a81548173ffffffffffffffffffffffffffffffffffffffff021916908373ffffffffffffffffffffffffffffffffffffffff16021790555060608201518160030190816111ef919061243e565b506080820151816004019081611205919061243e565b5060a0820151816005015560c0820151816006015560e082015181600701908161122f919061243e565b5050505050505050565b60606003805461124890612261565b80601f016020809104026020016040519081016040528092919081815260200182805461127490612261565b80156112c15780601f10611296576101008083540402835291602001916112c1565b820191906000526020600020905b8154815290600101906020018083116112a457829003601f168201915b5050505050905090565b80600390816112da919061243e565b5050565b60606001805480602002602001604051908101604052809291908181526020016000905b828210156115b5578382906000526020600020906008020160405180610100016040529081600082015481526020016001820160009054906101000a900473ffffffffffffffffffffffffffffffffffffffff1673ffffffffffffffffffffffffffffffffffffffff1673ffffffffffffffffffffffffffffffffffffffff1681526020016002820160009054906101000a900473ffffffffffffffffffffffffffffffffffffffff1673ffffffffffffffffffffffffffffffffffffffff1673ffffffffffffffffffffffffffffffffffffffff1681526020016003820180546113ec90612261565b80601f016020809104026020016040519081016040528092919081815260200182805461141890612261565b80156114655780601f1061143a57610100808354040283529160200191611465565b820191906000526020600020905b81548152906001019060200180831161144857829003601f168201915b5050505050815260200160048201805461147e90612261565b80601f01602080910402602001604051908101604052809291908181526020018280546114aa90612261565b80156114f75780601f106114cc576101008083540402835291602001916114f7565b820191906000526020600020905b8154815290600101906020018083116114da57829003601f168201915b50505050508152602001600582015481526020016006820154815260200160078201805461152490612261565b80601f016020809104026020016040519081016040528092919081815260200182805461155090612261565b801561159d5780601f106115725761010080835404028352916020019161159d565b820191906000526020600020905b81548152906001019060200180831161158057829003601f168201915b50505050508152505081526020019060010190611302565b50505050905090565b6000806000606080600080606060008060008b73ffffffffffffffffffffffffffffffffffffffff1673ffffffffffffffffffffffffffffffffffffffff16815260200190815260200160002060000154905060008a90506000808c73ffffffffffffffffffffffffffffffffffffffff1673ffffffffffffffffffffffffffffffffffffffff168152602001908152602001600020600001546000808d73ffffffffffffffffffffffffffffffffffffffff1673ffffffffffffffffffffffffffffffffffffffff16815260200190815260200160002060010160009054906101000a900473ffffffffffffffffffffffffffffffffffffffff166000808e73ffffffffffffffffffffffffffffffffffffffff1673ffffffffffffffffffffffffffffffffffffffff16815260200190815260200160002060020160009054906101000a900473ffffffffffffffffffffffffffffffffffffffff166000808f73ffffffffffffffffffffffffffffffffffffffff1673ffffffffffffffffffffffffffffffffffffffff1681526020019081526020016000206003016000808673ffffffffffffffffffffffffffffffffffffffff1673ffffffffffffffffffffffffffffffffffffffff1681526020019081526020016000206004016000808773ffffffffffffffffffffffffffffffffffffffff1673ffffffffffffffffffffffffffffffffffffffff168152602001908152602001600020600501546000808873ffffffffffffffffffffffffffffffffffffffff1673ffffffffffffffffffffffffffffffffffffffff1681526020019081526020016000206006016000898152602001908152602001600020600001546000808973ffffffffffffffffffffffffffffffffffffffff1673ffffffffffffffffffffffffffffffffffffffff16815260200190815260200160002060060160008a815260200190815260200160002060010184805461189790612261565b80601f01602080910402602001604051908101604052809291908181526020018280546118c390612261565b80156119105780601f106118e557610100808354040283529160200191611910565b820191906000526020600020905b8154815290600101906020018083116118f357829003601f168201915b5050505050945083805461192390612261565b80601f016020809104026020016040519081016040528092919081815260200182805461194f90612261565b801561199c5780601f106119715761010080835404028352916020019161199c565b820191906000526020600020905b81548152906001019060200180831161197f57829003601f168201915b505050505093508080546119af90612261565b80601f01602080910402602001604051908101604052809291908181526020018280546119db90612261565b8015611a285780601f106119fd57610100808354040283529160200191611a28565b820191906000526020600020905b815481529060010190602001808311611a0b57829003601f168201915b50505050509050995099509950995099509950995099505050919395975091939597565b6000604051905090565b600080fd5b600080fd5b600073ffffffffffffffffffffffffffffffffffffffff82169050919050565b6000611a8b82611a60565b9050919050565b611a9b81611a80565b8114611aa657600080fd5b50565b600081359050611ab881611a92565b92915050565b600060208284031215611ad457611ad3611a56565b5b6000611ae284828501611aa9565b91505092915050565b6000819050919050565b611afe81611aeb565b82525050565b600060a082019050611b196000830188611af5565b611b266020830187611af5565b611b336040830186611af5565b611b406060830185611af5565b611b4d6080830184611af5565b9695505050505050565b600081519050919050565b600082825260208201905092915050565b6000819050602082019050919050565b611b8c81611a80565b82525050565b6000611b9e8383611b83565b60208301905092915050565b6000602082019050919050565b6000611bc282611b57565b611bcc8185611b62565b9350611bd783611b73565b8060005b83811015611c08578151611bef8882611b92565b9750611bfa83611baa565b925050600181019050611bdb565b5085935050505092915050565b60006020820190508181036000830152611c2f8184611bb7565b905092915050565b600080fd5b600080fd5b6000601f19601f8301169050919050565b7f4e487b7100000000000000000000000000000000000000000000000000000000600052604160045260246000fd5b611c8a82611c41565b810181811067ffffffffffffffff82111715611ca957611ca8611c52565b5b80604052505050565b6000611cbc611a4c565b9050611cc88282611c81565b919050565b600067ffffffffffffffff821115611ce857611ce7611c52565b5b611cf182611c41565b9050602081019050919050565b82818337600083830152505050565b6000611d20611d1b84611ccd565b611cb2565b905082815260208101848484011115611d3c57611d3b611c3c565b5b611d47848285611cfe565b509392505050565b600082601f830112611d6457611d63611c37565b5b8135611d74848260208601611d0d565b91505092915050565b611d8681611aeb565b8114611d9157600080fd5b50565b600081359050611da381611d7d565b92915050565b600080600060608486031215611dc257611dc1611a56565b5b600084013567ffffffffffffffff811115611de057611ddf611a5b565b5b611dec86828701611d4f565b935050602084013567ffffffffffffffff811115611e0d57611e0c611a5b565b5b611e1986828701611d4f565b9250506040611e2a86828701611d94565b9150509250925092565b600081519050919050565b600082825260208201905092915050565b60005b83811015611e6e578082015181840152602081019050611e53565b60008484015250505050565b6000611e8582611e34565b611e8f8185611e3f565b9350611e9f818560208601611e50565b611ea881611c41565b840191505092915050565b60006020820190508181036000830152611ecd8184611e7a565b905092915050565b600060208284031215611eeb57611eea611a56565b5b600082013567ffffffffffffffff811115611f0957611f08611a5b565b5b611f1584828501611d4f565b91505092915050565b600081519050919050565b600082825260208201905092915050565b6000819050602082019050919050565b611f5381611aeb565b82525050565b600082825260208201905092915050565b6000611f7582611e34565b611f7f8185611f59565b9350611f8f818560208601611e50565b611f9881611c41565b840191505092915050565b600061010083016000830151611fbc6000860182611f4a565b506020830151611fcf6020860182611b83565b506040830151611fe26040860182611b83565b5060608301518482036060860152611ffa8282611f6a565b915050608083015184820360808601526120148282611f6a565b91505060a083015161202960a0860182611f4a565b5060c083015161203c60c0860182611f4a565b5060e083015184820360e08601526120548282611f6a565b9150508091505092915050565b600061206d8383611fa3565b905092915050565b6000602082019050919050565b600061208d82611f1e565b6120978185611f29565b9350836020820285016120a985611f3a565b8060005b858110156120e557848403895281516120c68582612061565b94506120d183612075565b925060208a019950506001810190506120ad565b50829750879550505050505092915050565b600060208201905081810360008301526121118184612082565b905092915050565b61212281611a80565b82525050565b60006101008201905061213e600083018b611af5565b61214b602083018a612119565b6121586040830189612119565b818103606083015261216a8188611e7a565b9050818103608083015261217e8187611e7a565b905061218d60a0830186611af5565b61219a60c0830185611af5565b81810360e08301526121ac8184611e7a565b90509998505050505050505050565b7f4e487b7100000000000000000000000000000000000000000000000000000000600052601160045260246000fd5b60006121f582611aeb565b91507fffffffffffffffffffffffffffffffffffffffffffffffffffffffffffffffff8203612227576122266121bb565b5b600182019050919050565b7f4e487b7100000000000000000000000000000000000000000000000000000000600052602260045260246000fd5b6000600282049050600182168061227957607f821691505b60208210810361228c5761228b612232565b5b50919050565b60008190508160005260206000209050919050565b60006020601f8301049050919050565b600082821b905092915050565b6000600883026122f47fffffffffffffffffffffffffffffffffffffffffffffffffffffffffffffffff826122b7565b6122fe86836122b7565b95508019841693508086168417925050509392505050565b6000819050919050565b600061233b61233661233184611aeb565b612316565b611aeb565b9050919050565b6000819050919050565b61235583612320565b61236961236182612342565b8484546122c4565b825550505050565b600090565b61237e612371565b61238981848461234c565b505050565b5b818110156123ad576123a2600082612376565b60018101905061238f565b5050565b601f8211156123f2576123c381612292565b6123cc846122a7565b810160208510156123db578190505b6123ef6123e7856122a7565b83018261238e565b50505b505050565b600082821c905092915050565b6000612415600019846008026123f7565b1980831691505092915050565b600061242e8383612404565b9150826002028217905092915050565b61244782611e34565b67ffffffffffffffff8111156124605761245f611c52565b5b61246a8254612261565b6124758282856123b1565b600060209050601f8311600181146124a85760008415612496578287015190505b6124a08582612422565b865550612508565b601f1984166124b686612292565b60005b828110156124de578489015182556001820191506020850194506020810190506124b9565b868310156124fb57848901516124f7601f891682612404565b8355505b6001600288020188555050505b505050505050565b60008160601b9050919050565b600061252882612510565b9050919050565b600061253a8261251d565b9050919050565b61255261254d82611a80565b61252f565b82525050565b6000819050919050565b61257361256e82611aeb565b612558565b82525050565b60006125858285612541565b6014820191506125958284612562565b6020820191508190509392505050565b600081519050919050565b600081905092915050565b60006125c6826125a5565b6125d081856125b0565b93506125e0818560208601611e50565b80840191505092915050565b60006125f882846125bb565b915081905092915050565b6000819050919050565b61261681612603565b811461262157600080fd5b50565b6000815190506126338161260d565b92915050565b60006020828403121561264f5761264e611a56565b5b600061265d84828501612624565b9150509291505056fea264697066735822122073b586fb4651c7fed979bc79b4a81a1538478b01dbd011f3b5974d20238c718464736f6c63430008110033",
  "immutableReferences": {},
  "source": "//SPDX-License-Identifier: MIT\r\n\r\npragma solidity >=0.7.0 <0.9.0;\r\ncontract SupplyChain {\r\n    \r\n    struct Product {\r\n        uint Serial;\r\n        address Manufacturer;\r\n        address ProductID;\r\n        string ProductName;\r\n        string ProductType;\r\n        uint ProductPrice;\r\n        mapping(uint => StateTime) State;\r\n    }\r\n    struct StateTime{\r\n        uint TimeStamp;\r\n        string State;\r\n    }\r\n\r\n    struct ProductDetail {\r\n        uint Serial;\r\n        address Manufacturer;\r\n        address ProductID;\r\n        string ProductName;\r\n        string ProductType;\r\n        uint ProductPrice;\r\n        uint TimeStamp;\r\n        string State;\r\n    }\r\n\r\n    \r\n    mapping(address => Product) myproduct;\r\n    ProductDetail[] products;\r\n    address[] ProductAddresses;\r\n    string Manufacturer_Address;\r\n\r\n    function enterAddress(string memory _Manufacturer_Address) public {\r\n        Manufacturer_Address = _Manufacturer_Address;\r\n    }\r\n    function getManufacturerAddress() public view returns (string memory) {\r\n        return Manufacturer_Address;\r\n    }\r\n\r\n\r\n    function createProduct(\r\n        string memory _ProductName,\r\n        string memory _ProductType,\r\n        uint _ProductPrice\r\n    ) public {\r\n        \r\n        address addr = address(bytes20(sha256(abi.encodePacked(msg.sender, block.timestamp))));\r\n        \r\n        myproduct[addr].Manufacturer = msg.sender;\r\n        myproduct[addr].ProductID = addr;\r\n        myproduct[addr].ProductName = _ProductName;\r\n        myproduct[addr].ProductType = _ProductType;\r\n        myproduct[addr].ProductPrice = _ProductPrice;\r\n        StateTime memory _state = StateTime(block.timestamp,\"SEETING\");\r\n        myproduct[addr].State[myproduct[addr].Serial] = _state;\r\n\r\n        \r\n        myproduct[addr].State[1].TimeStamp = 0;\r\n        myproduct[addr].State[2].TimeStamp = 0;\r\n        myproduct[addr].State[3].TimeStamp = 0;\r\n        myproduct[addr].State[4].TimeStamp = 0;\r\n        \r\n\r\n        ProductAddresses.push(addr);\r\n        products.push(\r\n            ProductDetail(\r\n                myproduct[addr].Serial,\r\n                msg.sender,\r\n                addr,\r\n                _ProductName,\r\n                _ProductType,\r\n                _ProductPrice,\r\n                block.timestamp,\r\n                \"SEETING\" \r\n            )\r\n        );\r\n\r\n    }\r\n    function ChangeState(address addr) public {\r\n        myproduct[addr].Serial++;\r\n        if(myproduct[addr].Serial == 1){\r\n            StateTime memory _state = StateTime(block.timestamp,\"PROCESS\");\r\n            myproduct[addr].State[myproduct[addr].Serial] = _state;\r\n             myproduct[addr].State[1].TimeStamp = block.timestamp;\r\n        }\r\n        if(myproduct[addr].Serial == 2){\r\n            StateTime memory _state = StateTime(block.timestamp,\"FINISH\");\r\n            myproduct[addr].State[myproduct[addr].Serial] = _state;\r\n            myproduct[addr].State[2].TimeStamp = block.timestamp;\r\n        }\r\n        if(myproduct[addr].Serial == 3){\r\n            StateTime memory _state = StateTime(block.timestamp,\"IN_TRANSIT\");\r\n            myproduct[addr].State[myproduct[addr].Serial] = _state;\r\n            myproduct[addr].State[3].TimeStamp = block.timestamp;\r\n        }\r\n        if(myproduct[addr].Serial == 4){\r\n            StateTime memory _state = StateTime(block.timestamp,\"ARRIVED\");\r\n            myproduct[addr].State[myproduct[addr].Serial] = _state;\r\n            myproduct[addr].State[4].TimeStamp = block.timestamp;\r\n        }\r\n        \r\n        \r\n    }\r\n\r\n     function getAllProductAddr() external view returns (address[] memory) {\r\n        return ProductAddresses;\r\n    }\r\n     function getAllProduct() public view returns (ProductDetail[] memory) {\r\n        return products;\r\n    }\r\n    \r\n\r\n    function getProductState(address id)public view returns (uint,uint,uint,uint,uint)\r\n    {\r\n        \r\n        return (\r\n            \r\n            myproduct[id].State[0].TimeStamp,\r\n            myproduct[id].State[1].TimeStamp,\r\n            myproduct[id].State[2].TimeStamp,\r\n            myproduct[id].State[3].TimeStamp,\r\n            myproduct[id].State[4].TimeStamp\r\n\r\n        );\r\n    }\r\n\r\n    function getProduct(address id)public view returns(uint,address,address,string memory,string memory,uint,uint,string memory){\r\n        uint _serial = myproduct[id].Serial;\r\n        address _id = id;\r\n        return (\r\n            \r\n            myproduct[id].Serial,\r\n            myproduct[id].Manufacturer,\r\n            myproduct[id].ProductID,\r\n            myproduct[id].ProductName,\r\n            myproduct[_id].ProductType,\r\n            myproduct[_id].ProductPrice,\r\n            myproduct[_id].State[_serial].TimeStamp,\r\n            myproduct[_id].State[_serial].State\r\n\r\n        );\r\n    }\r\n\r\n\r\n}",
  "sourcePath": "C:\\Users\\lulu\\final_supplychain\\truffle_connect_web3\\contracts\\supplychain.sol",
  "compiler": {
    "name": "solc",
    "version": "0.8.17+commit.8df45f5f.Emscripten.clang"
  },
  "schemaVersion": "3.4.14",
  "updatedAt": "2023-08-20T03:26:17.314Z",
  "networkType": "ethereum",
  "devdoc": {
    "kind": "dev",
    "methods": {},
    "version": 1
  },
  "userdoc": {
    "kind": "user",
    "methods": {},
    "version": 1
  }
}